{
  "contractName": "Factory",
  "abi": [
    {
      "anonymous": false,
      "inputs": [
        {
          "indexed": true,
          "internalType": "address",
          "name": "_newClone",
          "type": "address"
        },
        {
          "indexed": true,
          "internalType": "address",
          "name": "_owner",
          "type": "address"
        },
        {
          "indexed": true,
          "internalType": "uint256",
          "name": "_contractNumber",
          "type": "uint256"
        }
      ],
      "name": "NewContractClone",
      "type": "event"
    },
    {
      "anonymous": false,
      "inputs": [
        {
          "indexed": true,
          "internalType": "address",
          "name": "baseImplemenation",
          "type": "address"
        },
        {
          "indexed": true,
          "internalType": "string",
          "name": "_name",
          "type": "string"
        }
      ],
      "name": "NewImplementation",
      "type": "event"
    },
    {
      "anonymous": false,
      "inputs": [
        {
          "indexed": true,
          "internalType": "address",
          "name": "previousOwner",
          "type": "address"
        },
        {
          "indexed": true,
          "internalType": "address",
          "name": "newOwner",
          "type": "address"
        }
      ],
      "name": "OwnershipTransferred",
      "type": "event"
    },
    {
      "stateMutability": "payable",
      "type": "fallback",
      "payable": true
    },
    {
      "inputs": [],
      "name": "owner",
      "outputs": [
        {
          "internalType": "address",
          "name": "",
          "type": "address"
        }
      ],
      "stateMutability": "view",
      "type": "function",
      "constant": true
    },
    {
      "inputs": [],
      "name": "renounceOwnership",
      "outputs": [],
      "stateMutability": "nonpayable",
      "type": "function"
    },
    {
      "inputs": [
        {
          "internalType": "address",
          "name": "newOwner",
          "type": "address"
        }
      ],
      "name": "transferOwnership",
      "outputs": [],
      "stateMutability": "nonpayable",
      "type": "function"
    },
    {
      "stateMutability": "payable",
      "type": "receive",
      "payable": true
    },
    {
      "inputs": [
        {
          "internalType": "uint256",
          "name": "_baseId",
          "type": "uint256"
        },
        {
          "internalType": "bytes",
          "name": "_data",
          "type": "bytes"
        }
      ],
      "name": "createClone",
      "outputs": [],
      "stateMutability": "nonpayable",
      "type": "function"
    },
    {
      "inputs": [
        {
          "internalType": "address",
          "name": "_owner",
          "type": "address"
        },
        {
          "internalType": "uint256",
          "name": "_baseId",
          "type": "uint256"
        }
      ],
      "name": "getClonedContracts",
      "outputs": [
        {
          "internalType": "address[]",
          "name": "",
          "type": "address[]"
        }
      ],
      "stateMutability": "view",
      "type": "function",
      "constant": true
    },
    {
      "inputs": [
        {
          "internalType": "address",
          "name": "_implAddr",
          "type": "address"
        },
        {
          "internalType": "string",
          "name": "_name",
          "type": "string"
        }
      ],
      "name": "addBaseContract",
      "outputs": [],
      "stateMutability": "nonpayable",
      "type": "function"
    },
    {
      "inputs": [
        {
          "internalType": "uint256",
          "name": "_baseId",
          "type": "uint256"
        }
      ],
      "name": "getBaseContract",
      "outputs": [
        {
          "internalType": "address",
          "name": "",
          "type": "address"
        },
        {
          "internalType": "string",
          "name": "",
          "type": "string"
        }
      ],
      "stateMutability": "view",
      "type": "function",
      "constant": true
    }
  ],
  "bytecode": "0x608060405234801561001057600080fd5b5061001a33610023565b60018055610073565b600080546001600160a01b038381166001600160a01b0319831681178455604051919092169283917f8be0079c531659141344cd1fd0a4f28419497f9722a3daafe3b4186f6b6457e09190a35050565b610bc7806100826000396000f3fe6080604052600436106100745760003560e01c8063c40d24b11161004e578063c40d24b114610116578063e2683cf714610144578063f2fde38b14610164578063fbdc8eb1146101845761009a565b806331737ace146100b2578063715018a6146100d45780638da5cb5b146100e95761009a565b3661009a5760405162461bcd60e51b815260040161009190610759565b60405180910390fd5b60405162461bcd60e51b815260040161009190610759565b3480156100be57600080fd5b506100d26100cd36600461082a565b6101b1565b005b3480156100e057600080fd5b506100d26102bb565b3480156100f557600080fd5b506000546040516001600160a01b0390911681526020015b60405180910390f35b34801561012257600080fd5b50610136610131366004610885565b6102cf565b60405161010d9291906108ee565b34801561015057600080fd5b506100d261015f366004610931565b610388565b34801561017057600080fd5b506100d261017f366004610969565b6104c4565b34801561019057600080fd5b506101a461019f36600461098b565b61053d565b60405161010d91906109b5565b6101b96105bc565b6000828152600360205260408120546101da906001600160a01b0316610615565b33600081815260046020818152604080842089855282528084208054600181018255908552919093200180546001600160a01b0319166001600160a01b038616908117909155915163cce2df0360e01b8152939450909263cce2df039261024392879201610a02565b600060405180830381600087803b15801561025d57600080fd5b505af1158015610271573d6000803e3d6000fd5b50506040518592503391506001600160a01b038416907fea53cbed2284e1f5ff27673824e8a115e55c5e7233ec676439e7c002972e18e490600090a4506102b760018055565b5050565b6102c36106af565b6102cd6000610709565b565b60008181526003602052604081208054600190910180546060926001600160a01b0316919081906102ff90610a2c565b80601f016020809104026020016040519081016040528092919081815260200182805461032b90610a2c565b80156103785780601f1061034d57610100808354040283529160200191610378565b820191906000526020600020905b81548152906001019060200180831161035b57829003601f168201915b5050505050905091509150915091565b6103906106af565b813b6103fa5760405162461bcd60e51b815260206004820152603360248201527f436c6f6e65466163746f72793a204e657720696d706c656d656e746174696f6e604482015272081b5d5cdd08189948184818dbdb9d1c9858dd606a1b6064820152608401610091565b816003600061040860025490565b815260200190815260200160002060000160006101000a8154816001600160a01b0302191690836001600160a01b03160217905550806003600061044b60025490565b815260200190815260200160002060010190816104689190610ab5565b50610477600280546001019055565b806040516104859190610b75565b604051908190038120906001600160a01b038416907f43eba68a00f46589fe939991d45db24f175377e05021a90b533a39fa84f7fd5b90600090a35050565b6104cc6106af565b6001600160a01b0381166105315760405162461bcd60e51b815260206004820152602660248201527f4f776e61626c653a206e6577206f776e657220697320746865207a65726f206160448201526564647265737360d01b6064820152608401610091565b61053a81610709565b50565b6001600160a01b03821660009081526004602090815260408083208484528252918290208054835181840281018401909452808452606093928301828280156105af57602002820191906000526020600020905b81546001600160a01b03168152600190910190602001808311610591575b5050505050905092915050565b60026001540361060e5760405162461bcd60e51b815260206004820152601f60248201527f5265656e7472616e637947756172643a207265656e7472616e742063616c6c006044820152606401610091565b6002600155565b6000763d602d80600a3d3981f3363d3d373d3d3d363d730000008260601b60e81c176000526e5af43d82803e903d91602b57fd5bf38260781b17602052603760096000f090506001600160a01b0381166106aa5760405162461bcd60e51b8152602060048201526016602482015275115490cc4c4d8dce8818dc99585d194819985a5b195960521b6044820152606401610091565b919050565b6000546001600160a01b031633146102cd5760405162461bcd60e51b815260206004820181905260248201527f4f776e61626c653a2063616c6c6572206973206e6f7420746865206f776e65726044820152606401610091565b600080546001600160a01b038381166001600160a01b0319831681178455604051919092169283917f8be0079c531659141344cd1fd0a4f28419497f9722a3daafe3b4186f6b6457e09190a35050565b60208082526025908201527f436c6f6e65466163746f72793a20506c656173652063616c6c20637265617465604082015264436c6f6e6560d81b606082015260800190565b634e487b7160e01b600052604160045260246000fd5b600067ffffffffffffffff808411156107cf576107cf61079e565b604051601f8501601f19908116603f011681019082821181831017156107f7576107f761079e565b8160405280935085815286868601111561081057600080fd5b858560208301376000602087830101525050509392505050565b6000806040838503121561083d57600080fd5b82359150602083013567ffffffffffffffff81111561085b57600080fd5b8301601f8101851361086c57600080fd5b61087b858235602084016107b4565b9150509250929050565b60006020828403121561089757600080fd5b5035919050565b60005b838110156108b95781810151838201526020016108a1565b50506000910152565b600081518084526108da81602086016020860161089e565b601f01601f19169290920160200192915050565b6001600160a01b0383168152604060208201819052600090610912908301846108c2565b949350505050565b80356001600160a01b03811681146106aa57600080fd5b6000806040838503121561094457600080fd5b61094d8361091a565b9150602083013567ffffffffffffffff81111561085b57600080fd5b60006020828403121561097b57600080fd5b6109848261091a565b9392505050565b6000806040838503121561099e57600080fd5b6109a78361091a565b946020939093013593505050565b6020808252825182820181905260009190848201906040850190845b818110156109f65783516001600160a01b0316835292840192918401916001016109d1565b50909695505050505050565b604081526000610a1560408301856108c2565b905060018060a01b03831660208301529392505050565b600181811c90821680610a4057607f821691505b602082108103610a6057634e487b7160e01b600052602260045260246000fd5b50919050565b601f821115610ab057600081815260208120601f850160051c81016020861015610a8d5750805b601f850160051c820191505b81811015610aac57828155600101610a99565b5050505b505050565b815167ffffffffffffffff811115610acf57610acf61079e565b610ae381610add8454610a2c565b84610a66565b602080601f831160018114610b185760008415610b005750858301515b600019600386901b1c1916600185901b178555610aac565b600085815260208120601f198616915b82811015610b4757888601518255948401946001909101908401610b28565b5085821015610b655787850151600019600388901b60f8161c191681555b5050505050600190811b01905550565b60008251610b8781846020870161089e565b919091019291505056fea26469706673582212202f13cb257e7562172c6f048934adce08ce46e72ecb4e57cd0765fadb45a35a4864736f6c63430008110033",
  "immutableReferences": {},
  "source": "// SPDX-License-Identifier: MIT\r\npragma solidity ^0.8.0;\r\n\r\n/// @notice Minimal proxy library\r\nimport \"@openzeppelin/contracts/proxy/Clones.sol\";\r\nimport \"@openzeppelin/contracts/access/Ownable.sol\";\r\nimport \"@openzeppelin/contracts/security/ReentrancyGuard.sol\";\r\nimport \"@openzeppelin/contracts/utils/Counters.sol\";\r\n\r\nimport \"./IFactory.sol\";\r\n\r\n/// @dev an interface to interact with the base contracts\r\ninterface IContracts {\r\n    function initialize(bytes memory data, address owner_) external;\r\n}\r\n\r\ncontract Factory is IFactory, Ownable, ReentrancyGuard {\r\n    /// @notice cheaply clone contract functionality in an immutable way\r\n    using Clones for address;\r\n\r\n    /// @notice using a counter to increment next contract type number\r\n    using Counters for Counters.Counter;\r\n\r\n    /// @notice id of contract to be implemented next\r\n    Counters.Counter private contractTypeTracker_;\r\n\r\n    /// @notice structure of base contracts\r\n    struct ContractBase {\r\n        address impAddress;\r\n        string name;\r\n    }\r\n\r\n    /// @notice Base Contracts implementations\r\n    mapping(uint256 => ContractBase) private ContractsBase_;\r\n\r\n    /// @notice contracts mapped by owner address\r\n    mapping(address => mapping(uint256 => address[])) private clonedContracts;\r\n\r\n    receive() external payable {\r\n        revert(\"CloneFactory: Please call createClone\");\r\n    }\r\n\r\n    fallback() external payable {\r\n        revert(\"CloneFactory: Please call createClone\");\r\n    }\r\n\r\n    /**\r\n     * @notice initializing the cloned contract\r\n     * @param _data encoded data as param for initializing the proxy\r\n     * @param _baseId id of the desired implementation to clone\r\n     **/\r\n    function createClone(uint256 _baseId, bytes memory _data)\r\n        external\r\n        virtual\r\n        override\r\n        nonReentrant\r\n    {\r\n        address identicalChild = ContractsBase_[_baseId].impAddress.clone();\r\n\r\n        clonedContracts[msg.sender][_baseId].push(identicalChild);\r\n\r\n        IContracts(identicalChild).initialize(_data, msg.sender);\r\n\r\n        emit NewContractClone(identicalChild, msg.sender, _baseId);\r\n    }\r\n\r\n    /**\r\n     * @notice function returns cloned contracts by owner address\r\n     * @param _owner owner address\r\n     * @param _baseId id of an implementation\r\n     **/\r\n    function getClonedContracts(address _owner, uint256 _baseId)\r\n        external\r\n        view\r\n        virtual\r\n        override\r\n        returns (address[] memory)\r\n    {\r\n        return clonedContracts[_owner][_baseId];\r\n    }\r\n\r\n    /**\r\n     * @notice Add Base Contracts as new implementations to be cloned\r\n     * @param _implAddr address of Base contract\r\n     * @param _name name of Base contract\r\n     */\r\n    function addBaseContract(address _implAddr, string memory _name)\r\n        external\r\n        virtual\r\n        override\r\n        onlyOwner\r\n    {\r\n        require(\r\n            _exists(_implAddr),\r\n            \"CloneFactory: New implementation must be a contract\"\r\n        );\r\n        ContractsBase_[contractTypeTracker_.current()].impAddress = _implAddr;\r\n        ContractsBase_[contractTypeTracker_.current()].name = _name;\r\n        contractTypeTracker_.increment();\r\n\r\n        emit NewImplementation(_implAddr, _name);\r\n    }\r\n\r\n    /**\r\n     * @notice Return Base Contract\r\n     * @param _baseId Id of base contract to be returned\r\n     */\r\n    function getBaseContract(uint256 _baseId)\r\n        public\r\n        view\r\n        virtual\r\n        override\r\n        returns (address, string memory)\r\n    {\r\n        return (\r\n            ContractsBase_[_baseId].impAddress,\r\n            ContractsBase_[_baseId].name\r\n        );\r\n    }\r\n\r\n    /// @notice returns true for existing address\r\n    /// @param _what the address to be tested for existance\r\n    function _exists(address _what) internal view returns (bool) {\r\n        uint256 size;\r\n        assembly {\r\n            /* solium-disable-line */\r\n            size := extcodesize(_what)\r\n        }\r\n        return size > 0;\r\n    }\r\n}\r\n",
  "sourcePath": "C:\\Users\\Ghadi\\Desktop\\Portfolio\\Solidity\\Factory\\contracts\\Factory.sol",
  "compiler": {
    "name": "solc",
    "version": "0.8.17+commit.8df45f5f.Emscripten.clang"
  },
  "schemaVersion": "3.4.4",
  "updatedAt": "2023-01-28T16:19:09.789Z",
  "networkType": "ethereum",
  "devdoc": {
    "kind": "dev",
    "methods": {
      "addBaseContract(address,string)": {
        "params": {
          "_implAddr": "address of Base contract",
          "_name": "name of Base contract"
        }
      },
      "createClone(uint256,bytes)": {
        "params": {
          "_baseId": "id of the desired implementation to clone*",
          "_data": "encoded data as param for initializing the proxy"
        }
      },
      "getBaseContract(uint256)": {
        "params": {
          "_baseId": "Id of base contract to be returned"
        }
      },
      "getClonedContracts(address,uint256)": {
        "params": {
          "_baseId": "id of an implementation*",
          "_owner": "owner address"
        }
      },
      "owner()": {
        "details": "Returns the address of the current owner."
      },
      "renounceOwnership()": {
        "details": "Leaves the contract without owner. It will not be possible to call `onlyOwner` functions anymore. Can only be called by the current owner. NOTE: Renouncing ownership will leave the contract without an owner, thereby removing any functionality that is only available to the owner."
      },
      "transferOwnership(address)": {
        "details": "Transfers ownership of the contract to a new account (`newOwner`). Can only be called by the current owner."
      }
    },
    "version": 1
  },
  "userdoc": {
    "events": {
      "NewContractClone(address,address,uint256)": {
        "notice": "Emitted when a contract gets cloned"
      },
      "NewImplementation(address,string)": {
        "notice": "Emitted when a new implementation is added"
      }
    },
    "kind": "user",
    "methods": {
      "addBaseContract(address,string)": {
        "notice": "Add Base Contracts as new implementations to be cloned"
      },
      "createClone(uint256,bytes)": {
        "notice": "initializing the cloned contract"
      },
      "getBaseContract(uint256)": {
        "notice": "Return Base Contract"
      },
      "getClonedContracts(address,uint256)": {
        "notice": "function returns cloned contracts by owner address"
      }
    },
    "version": 1
  }
}